:020000040800F2
:1000000038110020CD0100086F1D0008491B0008B1
:100010006B1D0008E90200089124000800000000A0
:10002000000000000000000000000000491E000861
:10003000ED02000800000000711D0008A11E00086C
:10004000E7010008E7010008E7010008E7010008F0
:10005000E7010008E7010008E7010008E7010008E0
:10006000E7010008E7010008E7010008E7010008D0
:10007000E7010008E7010008E7010008E7010008C0
:10008000E7010008E7010008E7010008E7010008B0
:10009000E7010008E7010008E7010008E7010008A0
:1000A000E7010008E7010008E7010008E701000890
:1000B000E7010008D1200008E7010008E701000877
:1000C000E7010008E7010008E7010008E701000870
:1000D000E701000851240008E7010008E7010008D3
:1000E000E7010008E7010008E7010008E701000850
:1000F000E7010008E7010008E7010008E701000840
:10010000E7010008E7010008E7010008E70100082F
:10011000E7010008E7010008E7010008E70100081F
:10012000E7010008E7010008E7010008E70100080F
:1001300000F002F800F03AF80AA090E8000C8244BF
:100140008344AAF10107DA4501D100F02FF8AFF29C
:10015000090EBAE80F0013F0010F18BFFB1A43F0A5
:1001600001031847F84F000018500000103A24BF50
:1001700078C878C1FAD8520724BF30C830C144BF0C
:1001800004680C607047000000230024002500264E
:10019000103A28BF78C1FBD8520728BF30C148BFEA
:1001A0000B6070471FB51FBD10B510BD00F06EF895
:1001B0001146FFF7F7FF02F0EDFE00F08CF803B4F4
:1001C000FFF7F2FF03BC02F081F900000948804705
:1001D00009480047FEE7FEE7FEE7FEE7FEE7FEE729
:1001E000FEE7FEE7FEE7FEE704480549054A064B41
:1001F00070470000A91E000831010008380B0020DC
:1002000038110020380D0020380D002070474FF0C5
:10021000000200B5134694469646203922BFA0E856
:100220000C50A0E80C50B1F12001BFF4F7AF090762
:1002300028BFA0E80C5048BF0CC05DF804EB890053
:1002400028BF40F8042B08BF704748BF20F8022B96
:1002500011F0804F18BF00F8012B704770477047AE
:100260007047704710B500F009F8006810BD10B570
:10027000044600F003F8046010BD00000048704719
:10028000D80A002000487047D80A00207546FFF7BA
:10029000F9FFAE4605006946534620F00700854643
:1002A00018B020B5FFF7A0FFBDE820404FF00006D2
:1002B0004FF000074FF000084FF0000B21F007014E
:1002C000AC46ACE8C009ACE8C009ACE8C009ACE891
:1002D000C0098D46704710B50446AFF30080204634
:1002E000BDE81040FFF76BBF00BFFEE7704700009E
:1002F0002DE9F04F85B0002004908146824600240D
:1003000003900190029002F089FB03AA8021FB4830
:1003100002F0C8FA0446039802F07BFF0746002269
:10032000F74B02F08DFF054602F016FF0FFA80FB37
:100330005A4601215A2002F0F1FCF2A201218C2040
:1003400002F07BFD4FF0020920E0EC4810F80900B4
:10035000042805DCE94810F80900E84901F809001B
:10036000E64810F80910A9F10100E44A105C0144C4
:1003700009F10100105C0844032190FBF1F01146E3
:1003800001F8090009F1010000F0FF09B9F1800F3F
:10039000DBDB01A802F09CFA9DF80440DA48007803
:1003A000032801D104EBC404D7480078022802D105
:1003B0004FF474704443D4480078012802D142F2CB
:1003C00025604443D048007808B9D0484443D04819
:1003D000844207D3B4FBF0F4CEA200217A2002F0CD
:1003E0002CFD11E0B4F57A7F09D34FF47A70B4FB99
:1003F000F0F4C9A200217A2002F01FFD04E0C7A298
:100400000021782002F019FD0A2C15D90A20B4FB2E
:10041000F0F100FB1140062808D30A20B4FBF0F1EC
:1004200000FB1140201A00F10A0405E00A20B4FB89
:10043000F0F100FB1140241A22B20021552002F0F5
:10044000CAFC042322460121072002F0B1F9B4A21C
:100450000121002001F078FCAFA201210C2001F065
:1004600073FC9DF80540A8480078032801D104EBEF
:10047000C404A5480078022802D14FF474704443A4
:10048000A1480078012802D142F2256044439E48E9
:10049000007808B99D4844439D48844202D3B4FB88
:1004A000F0F406E0B4F57A7F03D34FF47A70B4FB2E
:1004B000F0F40A2C15D90A20B4FBF0F100FB11402E
:1004C000062808D30A20B4FBF0F100FB1140201AE3
:1004D00000F10A0405E00A20B4FBF0F100FB114032
:1004E000241A22B20121192002F075FC9DF8064061
:1004F00085480078032801D104EBC40482480078C1
:10050000022802D14FF4747044437F4800780128D8
:1005100002D142F2256044437B48007808B97B4809
:1005200044437B48844202D3B4FBF0F406E0B4F5C4
:100530007A7F03D34FF47A70B4FBF0F40A2C15D908
:100540000A20B4FBF0F100FB1140062808D30A2072
:10055000B4FBF0F100FB1140201A00F10A0405E0A1
:100560000A20B4FBF0F100FB1140241A22B2012151
:10057000372002F030FC9DF80740634800780328DC
:1005800001D104EBC40460480078022802D14FF482
:10059000747044435C480078012802D142F225601F
:1005A00044435948007808B958484443584884425D
:1005B00002D3B4FBF0F406E0B4F57A7F03D34FF432
:1005C0007A70B4FBF0F40A2C15D90A20B4FBF0F1D0
:1005D00000FB1140062808D30A20B4FBF0F100FB11
:1005E0001140201A00F10A0405E00A20B4FBF0F1E2
:1005F00000FB1140241A9DF8084043480078032866
:1006000001D104EBC40440480078022802D14FF421
:10061000747044433C480078012802D142F22560BE
:1006200044433948007808B938484443384884423C
:1006300002D3B4FBF0F406E0B4F57A7F03D34FF4B1
:100640007A70B4FBF0F40A2C15D90A20B4FBF0F14F
:1006500000FB1140062808D30A20B4FBF0F100FB90
:100660001140201A00F10A0405E00A20B4FBF0F161
:1006700000FB1140241A4FF0000938E01F4810F821
:100680000900052800DC00E000BF1C4810F8090044
:100690002549097800FB01FA1F200AEB8A010D01A8
:1006A000E91705EB11610912C1F16E01CBB209F135
:1006B0001401CAB20090C8B26E2101F021FC4FF6BD
:1006C000FF700AEB8A031D01EB1705EB13631B1286
:1006D000C3F16E03D9B209F11503DAB20090D8B2B2
:1006E0001E2301F00DFC09F1010000F0FF09B9F132
:1006F000800FC3DB05B0BDE8F08F0000D8090020F3
:1007000000403F404D56000041000020787D010030
:1007100040420F004D485A004B485A00485A0000CA
:100720006E6F775F706C00004300002070B5044668
:10073000002594F82100022803D00420A06301259D
:10074000C1E02068006820F00E0021680860206881
:10075000006820F00100216808605C492068884238
:1007600052D95A4978392068884201D1012047E09E
:10077000564964392068884201D1102040E053492D
:1007800050392068884201D1801539E04F493C3901
:100790002068884201D1801432E04C492839206811
:1007A000884202D14FF480302AE048491439206849
:1007B000884202D14FF4801022E0444920688842E8
:1007C00001D140041CE042492068884201D1012047
:1007D00016E03F4914312068884201D110200FE013
:1007E0003B4928312068884201D1801508E038490A
:1007F0003C312068884201D1801401E04FF4803000
:100800003349091F086051E030497839206888422F
:1008100001D1012047E02D4964392068884201D187
:10082000102040E0294950392068884201D18015C4
:1008300039E026493C392068884201D1801432E0F1
:10084000224928392068884202D14FF480302AE0BA
:100850001E4914392068884202D14FF4801022E0EA
:100860001A492068884201D140041CE018492068D8
:10087000884201D1012016E01549143120688842D0
:1008800001D110200FE0124928312068884201D19F
:10089000801508E00E493C312068884201D180145F
:1008A00001E04FF48030094980394860012084F824
:1008B000210000BF002084F8200000BF606B10B151
:1008C0002046616B8847284670BD000080000240CA
:1008D000080402402DE9F847024600239C467BE1CC
:1008E0004FF0010808FA03F4D1F8008008EA040088
:1008F000A0427DD1DFF8F4A2D1F80480A8EB0A0968
:10090000D0453AD014DCB8F1030F50D009DCB8F16F
:10091000000F31D0B8F1010F1CD0B8F1020F49D14E
:1009200020E0B8F1110F18D0B8F1120F42D11EE03B
:10093000B9F5881F25D006DCB9F5803F20D0B9F580
:10094000801F37D11AE0B9F5001F18D0B9F5041F80
:1009500030D117E0D1F80CC02DE0D1F80C8008F1AF
:10096000040C28E0D1F80C8008F1080C23E0D1F841
:100970000C8008F10C0C1EE000BF00BF00BF00BFE0
:1009800000BF00BFD1F80880B8F1000F02D14FF0CE
:10099000040C0BE0D1F80880B8F1010F03D14FF03F
:1009A000080C146102E04FF0080C546103E04FF0B2
:1009B000000C00E000BF00BFFF2801D8904601E016
:1009C00002F104084646FF2802D84FEA830803E0F4
:1009D000A3F108084FEA88084746D6F800804FF090
:1009E0000F0909FA07F928EA09080CFA07F900E0E3
:1009F0007AE048EA0908C6F80080D1F8048008F0D7
:100A00008058B8F1805F6FD100BFDFF8E481D8F87B
:100A1000188048F00108DFF8D891C9F81880C84656
:100A2000D8F8188008F00108CDF8008000BF00BF9A
:100A30004FEAB9384FEA930958F829504FEA8378BA
:100A40004FEA18794FF00F0808FA09F825EA080567
:100A5000DFF8A081424502D14FF0000824E0DFF822
:100A60009881424502D14FF001081DE0DFF88C81EA
:100A7000424502D14FF0020816E0DFF8848142457A
:100A800002D14FF003080FE0DFF87881424502D130
:100A90004FF0040808E0DFF87081424502D14FF0C2
:100AA000050801E04FF006084FEA83794FEA19790B
:100AB00008FA09F848EA0505DFF850814FEA93097A
:100AC00048F82950D1F8048008F48038B8F5803F00
:100AD0000BD1DFF83C81D8F8008048EA0008DFF845
:100AE0003091C9F800800AE075E0DFF82481D8F879
:100AF000008028EA0008DFF81891C9F80080D1F8D2
:100B0000048008F40038B8F5003F0ED1DFF800810A
:100B100008F10408D8F8008048EA0008DFF8F090EF
:100B200009F10409C9F800800DE0DFF8E48008F15C
:100B30000408D8F8008028EA0008DFF8D49009F10A
:100B40000409C9F80080D1F8048008F48018B8F5C9
:100B5000801F0ED1DFF8B88008F10808D8F80080AF
:100B600048EA0008DFF8A89009F10809C9F80080F0
:100B70000DE0DFF89C8008F10808D8F8008028EA2A
:100B80000008DFF88C9009F10809C9F80080D1F855
:100B9000048008F40018B8F5001F0ED1DFF870804B
:100BA00008F10C08D8F8008048EA0008DFF86090E7
:100BB00009F10C09C9F800800DE0DFF8548008F154
:100BC0000C08D8F8008028EA0008DFF8449009F102
:100BD0000C09C9F800805B1CD1F8008028FA03F8E2
:100BE000B8F1000F7FF47CAEBDE8F887000011106B
:100BF0000010024000080140000C014000100140BC
:100C00000014014000180140001C01400800014090
:100C1000000401400AB1016101E00B040361704767
:100C20000148006870470000140000200348006875
:100C300003490978084401490860704714000020FE
:100C40001C00002010B50848006840F0100006495C
:100C50000860052000F080F80F2000F007F800F091
:100C60002BF8002010BD00000020024070B50446A3
:100C70000E4800784FF47A71B1FBF0F00C49096826
:100C8000B1FBF0F5284600F0F7FB08B1012070BD7C
:100C9000102C07D200222146501E00F01EF80548F5
:100CA000046001E00120F2E70020F0E71C000020D2
:100CB0001000002018000020704701460846002858
:100CC00009DB00F01F0301229A4043099B0003F156
:100CD000E023C3F8002100BF70472DE9F05F804694
:100CE0000D461646002701F0D5FB074639462A4631
:100CF000334601F00700C0F1070ABAF1040F02D928
:100D00004FF0040A01E0C0F1070AD14600F1040ADD
:100D1000BAF1070F02D24FF0000A01E0A0F1030A76
:100D2000D4464FF0010A0AFA09FAAAF1010A0AEABE
:100D3000020A0AFA0CFA4FF0010B0BFA0CFBABF1AA
:100D4000010B0BEA030B4AEA0B042146404601F073
:100D5000A9FBBDE8F09F000000BF00F00702064BB2
:100D600019684FF6FF031940044B0B4343EA022175
:100D7000014B196000BF70470CED00E00000FA0560
:100D800070B504460D460CB9012070BD5A48006884
:100D900000F00700A8420ED25748006820F0070074
:100DA0002843554908600846006800F00700A8423B
:100DB00001D00120E9E7207800F0020002281DD1CF
:100DC000207800F00400042805D14C48406840F425
:100DD000E0604A494860207800F00800082805D102
:100DE0004648406840F46050444948604348406881
:100DF00020F0F000A168084340494860207800F0E6
:100E0000010078B36068012806D13C48006800F40E
:100E1000003090B90120B8E76068022806D1374851
:100E2000006800F0007040B90120AEE73348006868
:100E300000F0020008B90120A7E73048406820F020
:100E40000300616808432D494860FFF7E9FE064644
:100E500009E0FFF7E5FE801B41F28831884202D9A4
:100E6000032092E707E02548406800F00C00616825
:100E7000B0EB810FEDD12048006800F00700A842D8
:100E80000ED91D48006820F0070028431A49086061
:100E90000846006800F00700A84201D0012074E76E
:100EA000207800F00400042807D11448406820F49A
:100EB000E060E168084311494860207800F00800CC
:100EC000082808D10D48406820F46050216940EAA4
:100ED000C1000A49486000F03FF808494968C1F379
:100EE0000311074A515CC84006490860064800687B
:100EF000FFF7BCFE002048E700200240001002403F
:100F00006A3B00081000002018000020014800681B
:100F1000704700001000002000B5FFF7F7FF0449FC
:100F20004968C1F30221034A515CC84000BD00007A
:100F3000001002407A3B000800B5FFF7E7FF0449C4
:100F40004968C1F3C221034A515CC84000BD00009A
:100F5000001002407A3B0008F0B585B00FF26C0C2F
:100F60009CE8E01001A8A0E8E0101CA52D68009501
:100F700000210022002300240020194D696801F09F
:100F80000C05F5B1042D02D0082D19D101E015484A
:100F900019E001ADC1F38346AC5D01F4803555B174
:100FA0000F4D6D68C5F340451DF805200D4D654397
:100FB000B5FBF2F302E00C4D04FB05F3184602E02A
:100FC00000BF084800BF00BF05B0F0BD0203040524
:100FD000060708090A0B0C0D0E0F10100102000085
:100FE0000010024000127A0000093D00F8B50446E6
:100FF0000CB90120F8BD207800F00100002878D05D
:10100000F848406800F00C0004280CD0F54840680F
:1010100000F00C00082811D1F248406800F480303C
:10102000B0F5803F0AD1EF48006800F40030002896
:101030005FD0606800285CD10120DBE700BF6068FA
:10104000B0F5803F06D1E748006840F48030E549BC
:10105000086028E0606858B9E248006820F48030F1
:10106000E04908600846006820F4802008601AE023
:101070006068B0F5A02F0BD1DA48006840F48020FA
:10108000D84908600846006840F4803008600AE0EB
:10109000D448006820F48030D249086008460068CF
:1010A00020F48020086000BF606888B1FFF7B8FDB9
:1010B000054606E0FFF7B4FD401B642801D9032074
:1010C00098E7C848006800F400300028F2D010E02B
:1010D000FFF7A6FD054606E0FFF7A2FD401B6428CA
:1010E00001D9032086E7BF48006800F400300028DB
:1010F000F2D1207800F00200022857D1B9484068A8
:1011000000F00C0050B1B748406800F00C0008280F
:1011100018D1B448406800F4803098B9B1480068EC
:1011200000F0020020B12069012801D0012061E710
:10113000AC48006820F0F800616940EAC100A949A4
:10114000086033E02069E8B10120A7490860FFF793
:1011500067FD054606E0FFF763FD401B022801D945
:10116000032047E79F48006800F002000028F2D003
:101170009C48006820F0F800616940EAC100994984
:10118000086013E0002098490860FFF749FD054614
:1011900006E0FFF745FD401B022801D9032029E79F
:1011A0009048006800F002000028F2D1207800F09A
:1011B000080008282DD1A069B8B101208B4908602A
:1011C000FFF72EFD054606E0FFF72AFD401B02282B
:1011D00001D903200EE78348406A00F0020000288E
:1011E000F2D0012000F0C6FD13E000207F49086026
:1011F000FFF716FD054606E0FFF712FD401B02282B
:1012000001D90320F6E67748406A00F00200002882
:10121000F2D1207800F00400042873D1002771482F
:10122000C06900F0805070B900BF6E48C06940F0DE
:1012300080506C49C8610846C06900F08050009039
:1012400000BF00BF01276A48006800F48070B0B991
:101250006748006840F4807065490860FFF7E0FC6B
:10126000054606E0FFF7DCFC401B642801D903209B
:10127000C0E65F48006800F480700028F2D000BF2C
:10128000E068012806D15748006A40F0010055493E
:10129000086227E0E06858B95248006A20F001006F
:1012A000504908620846006A20F00400086219E00C
:1012B000E06805280BD14B48006A40F0040049491A
:1012C00008620846006A40F0010008620AE04548EA
:1012D000006A20F00100434908620846006A20F0D5
:1012E0000400086200BFE068A0B1FFF799FC054662
:1012F00009E0FFF795FC401B41F28831884202D992
:10130000032077E622E03748006A00F00200002858
:10131000EFD012E0FFF784FC054608E0FFF780FC01
:10132000401B41F28831884201D9032062E62D48F2
:10133000006A00F002000028F0D1012F05D12948F1
:10134000C06920F080502749C86100BFE069C8B378
:101350002448406800F00C00082860D0E0690228AA
:1013600048D1002020490866FFF75AFC054606E0F0
:10137000FFF756FC401B022801D903203AE6194822
:10138000006800F000700028F2D1206AB0F5803FBC
:1013900007D11448406820F40030A168084311497F
:1013A0004860D4E9080108430E49496821F47411E2
:1013B00008430C49486001200B490866FFF730FCE0
:1013C000054607E03DE0FFF72BFC401B022801D952
:1013D00003200FE60348006800F000700028F2D0F8
:1013E0002FE0000000100240000042428004424210
:1013F00000700040002014490866FFF711FC054604
:1014000006E0FFF70DFC401B022801D90320F1E59F
:101410000E48006800F000700028F2D111E0E06989
:10142000012800D1E6E50948466806F48031206AC3
:10143000814204D106F47011606A814201D001201A
:10144000D8E50020D6E5000000004242001002402E
:10145000042808D14FF0E021096941F004014FF060
:10146000E022116107E04FF0E021096921F0040159
:101470004FF0E0221161704770B504462546681EA2
:10148000B0F1807F01D301200FE0681E4FF0E02112
:1014900048610F214FF0FF3001F004F800204FF0B9
:1014A000E021886107200861002070BD7047704707
:1014B000704710B5044620680069C0F34000D8B1F9
:1014C0002068C068C0F34000B0B16FF0020021682E
:1014D0000861012020772068806900F0030018B1BE
:1014E0002046FFF7E5FF05E0204600F0ADF8204676
:1014F00000F0ABF80020207720680069C0F380007E
:10150000D8B12068C068C0F38000B0B16FF00400AB
:1015100021680861022020772068806900F440700B
:1015200018B12046FFF7C4FF05E0204600F08CF814
:10153000204600F08AF80020207720680069C0F378
:10154000C000D8B12068C068C0F3C000B0B16FF06F
:10155000080021680861042020772068C06900F035
:10156000030018B12046FFF7A3FF05E0204600F076
:101570006BF8204600F069F80020207720680069A9
:10158000C0F30010D8B12068C068C0F30010B0B13B
:101590006FF0100021680861082020772068C0697A
:1015A00000F4407018B12046FFF782FF05E02046A6
:1015B00000F04AF8204600F048F800202077206824
:1015C000006900F0010058B12068C06800F0010017
:1015D00030B16FF0010021680861204600F036F854
:1015E00020680069C0F3C01058B12068C068C0F31B
:1015F000C01030B16FF08000216808612046FFF70D
:1016000055FF20680069C0F3801058B12068C06899
:10161000C0F3801030B16FF04000216808612046AF
:1016200000F030F820680069C0F3401058B120681D
:10163000C068C0F3401030B16FF02000216808612D
:101640002046FFF734FF10BD704770470A498842B3
:1016500010D10A49097869B909490978491C084A29
:10166000117011460978022904DD00211170012151
:10167000024A117070470000980300203C000020CF
:10168000380000207047704701460022002391F87F
:10169000392091F83A3042EA030070472DE9F047CB
:1016A0000446206805682068C668206847694FF0CE
:1016B0000008C14605F00F08B8F1000F0AD105F087
:1016C000200038B106F0200020B1204600F032FDA5
:1016D000BDE8F087B8F1000F6DD007F0010018B930
:1016E00006F49070002866D005F0010030B106F4D1
:1016F000807018B1E06B40F00100E06305F0040079
:1017000030B107F0010018B1E06B40F00200E06377
:1017100005F0020030B107F0010018B1E06B40F0B5
:101720000400E06305F0080030B107F0010018B1D3
:10173000E06B40F00800E063E06B68B305F0200068
:1017400028B106F0200010B1204600F0F3FC20681C
:101750004069C0F38019E06B00F0080010B9B9F1DE
:10176000000F22D0204600F0C5FC2068406900F040
:101770004000B0B12068406920F040002168486115
:10178000606B50B11748616B4863606BFEF7CEFF2A
:1017900010B1606B416B88470CE02046FFF773FF88
:1017A00008E02046FFF76FFF04E02046FFF76BFFDD
:1017B0000020E0638CE705F0800030B106F0800087
:1017C00018B1204600F0DAFD82E705F0400030B1A4
:1017D00006F0400018B1204600F09CFC78E700BFFE
:1017E00076E70000E120000810B504460CB901209E
:1017F00010BDA06900B100E000BF94F8390028B91D
:10180000002084F83800204600F028F8242084F8CE
:1018100039002068C06820F400502168C860204664
:1018200000F0DCFC2068006920F490402168086129
:101830002068406920F02A00216848612068C0685B
:1018400040F400502168C8600020E063202084F844
:10185000390084F83A000020CAE7000010B586B0CD
:10186000044646492068884244D100BF4448806904
:1018700040F00400424988610846806900F0040095
:10188000019000BF00BF00BF0846806940F480405F
:1018900088610846806900F48040019000BF00BF65
:1018A00000BF0846806940F00100886108468069F1
:1018B00000F00100019000BF00BF48150290022017
:1018C0000390012004900320059002A92D48FFF702
:1018D00001F84FF4806002900020039002A929488B
:1018E000FEF7F8FF2520FFF7E8F901221146252031
:1018F000FFF7F3F92449206888423CD100BF204813
:10190000806940F008001E4988610846806900F03F
:101910000800019000BF00BF00BF0846C06940F446
:101920008020C8610846C06900F48020019000BF93
:1019300000BF00BF0846806940F00100886108468A
:10194000806900F00100019000BF00BF08150290FF
:1019500002200390012004900320059002A90B4867
:10196000FEF7B8FF4FF4006002900020039002A938
:101970000648FEF7AFFF06B010BD0000003801407A
:10198000001002400008014000480040000C0140E7
:1019900010B5034693F83A0020282FD101B10AB9B7
:1019A000012010BD00BF93F83800012801D10220AA
:1019B000F7E7012083F8380000BF99629A85DA853D
:1019C0000020D863222083F83A0000BF002083F86B
:1019D000380000BF1868C06840F480701C68E06080
:1019E0001868406940F001001C6860611868C068B0
:1019F00040F020001C68E0600020D2E70220D0E721
:101A0000154A0168914226D114490978144A154BA8
:101A10001B68D15413490968032903DC0021114BC9
:101A20001B68D1540F490968491C0E4A11601146C0
:101A30000968FF290FDB002111600B490978022991
:101A400002D10321084A117008490978012902D1FD
:101A50000221064A11707047003801402A00002018
:101A6000D8090020300000203C0000202C0000207D
:101A70002DE9F84304460D4616461F464FF000096F
:101A800094F8390020285CD105B116B90120BDE8D1
:101A9000F88300BF94F83800012801D10220F6E74E
:101AA000012084F8380000BF0020E063212084F882
:101AB0003900FFF7B5F88146A684E6842BE0E08C78
:101AC000401EE084A068B0F5805F16D14B4600222E
:101AD00080212046009700F085FC08B10320D6E75E
:101AE000A846B8F80000C0F30800216848602069E3
:101AF00008B9AD1C0FE06D1C0DE04B4600228021A3
:101B00002046009700F06EFC08B10320BFE715F8EF
:101B1000010B21684860E08C0028D0D14B460022A0
:101B200040212046009700F05DFC08B10320AEE79D
:101B3000202084F8390000BF002084F8380000BF5E
:101B4000A5E70220A3E7704700BFFEE710B5002419
:101B50004FF4967000F0C6FC01F01CF8052403E079
:101B6000282000F0BBF8641E002CF9DC012000F0F6
:101B7000B5F8062000F0B2F80F2000F0AFF80C2006
:101B800000F0ACF810BD000010B500201549087039
:101B9000084600781449097808438006000E114968
:101BA0000870084600781149097808438006000E3D
:101BB0000C490870084600780D49097808438006EA
:101BC000000E08490870084600780A490978084359
:101BD000044908704FF47A7301220748FFF748FF61
:101BE00010BD000042000020410000204000002005
:101BF0003F0000203E0000204C0100202DE9F0476E
:101C000005460F461646AA4600243AE0102C05DA8F
:101C10001E4901EB461010F8048009E0012000EB9A
:101C200046001A4901EB0011A4F1100011F80080E0
:101C30004FF000091FE008F0010030B14FF4784286
:101C40003946284600F098FF05E04FF6FF72394606
:101C5000284600F091FF4FEA6808681C85B2A5EBA2
:101C60000A00102803D15546781C87B206E009F116
:101C7000010000F0FF09B9F1080FDCDB00BF601CB8
:101C8000C4B2202CC2DBBDE8F0870000823B000814
:101C900000B585B000BF0F48806940F008000D49CD
:101CA00088610846806900F00800009000BF00BF0E
:101CB000481501900120029003900320049001A98F
:101CC0000548FEF707FE012251020348FEF7A2FF76
:101CD00005B000BD00100240000C014010B50446E4
:101CE00000F05CF80020044908600449C1F8840150
:101CF000204600F0F3FE10BD808122420080224287
:101D000010B5044600F04AF801200649086000209A
:101D10000549C1F88401204600F0E0FE052000F0EE
:101D2000E1FB10BD808122420080224270B5044652
:101D30000E460EB9E5B202E004F14000C5B245F02E
:101D40008000FFF7CBFF70BD70B505460E46144608
:101D500031462846FFF7EAFF03E014F8010BFFF7CE
:101D6000CFFF20780028F8D170BD00BFFEE7704794
:101D70007047000008B508490968C9084FF47A722D
:101D8000B1FBF2F14143009100BF00BF00994A1E30
:101D900000920029F9D108BD1000002010B50120E3
:101DA0000D49086000F08AFE00200C49C1F880014E
:101DB00001200949183908600849C1F8880100BFA5
:101DC0000548803800680028FAD1034914390860B2
:101DD00001F05AF910BD00009C812242008022428D
:101DE00000B585B000BF1448806940F00800124972
:101DF00088610846806900F00800009000BF00BFBD
:101E00004FF4784001900120029003900320049049
:101E100001A90A48FEF75EFD012009490860094949
:101E2000C1F8B001064908310860091D0860091DA4
:101E3000086005B000BD000000100240000C014029
:101E4000AC81214200802142704730B58FB00546F9
:101E50000024012005900004069000200790022035
:101E60000C90C1030D910E9505A8FFF7BFF804462D
:101E70000CB100BFFEE70F2000900220019000206F
:101E800002904FF480600390002004900221684685
:101E9000FEF776FF04460CB100BFFEE70FB030BD81
:101EA00010B5FEF7C3FE10BD1148006840F00100F8
:101EB0000F490860084640680E4908400C494860D0
:101EC000084600680C49084009490860084600684F
:101ED00020F4802008600846406820F4FE00486036
:101EE0004FF41F008860C803044908607047000071
:101EF000001002400000FFF8FFFFF6FE08ED00E0D2
:101F00002DE9F04F85B006460D4617469846002449
:101F1000002004908146454507D1B74205D12946A6
:101F200030460E9A00F028FECDE0B81BA8EB050164
:101F3000002901DB0A4600E04A42002801DB034693
:101F400000E043429A425FDCB7422EDBA8EB05007B
:101F500064214843B91B90FBF1FA504601F098FC0C
:101F6000814634461EE0A01B01F092FC49460090D9
:101F700001F0BAFC5549019001F0A8FB83462846C0
:101F800001F09EFC5946029001F03EFB039001F0E7
:101F90005FFC1FFA80FA514620460E9A00F0ECFDD5
:101FA000601CC4B2BC42DEDB8DE0A8EB05006421FE
:101FB0004843B91B90FBF1FA504601F069FC814699
:101FC0003C461EE0A01B01F063FC4946009001F076
:101FD0008BFC3E49019001F079FB0390284601F00B
:101FE0006FFC0290039901F00FFB834601F030FC77
:101FF0001FFA80FA514620460E9A00F0BDFD601C83
:10200000C4B2B442DEDB5EE0A8452EDDB81B64211D
:102010004843A8EB050190FBF1FA504601F038FC6B
:1020200081462C461EE0601B01F032FC49460090C0
:1020300001F05AFC2549019001F048FB039030461D
:1020400001F03EFC0290039901F0DEFA834601F0B4
:10205000FFFB1FFA80FA214650460E9A00F08CFDD5
:10206000601CC4B24445DEDB2DE0B81B642148434C
:10207000A8EB050190FBF1FA504601F009FC8146FE
:1020800044461EE0601B01F003FC4946009001F04D
:102090002BFC0E49019001F019FB0390304601F032
:1020A0000FFC0290039901F0AFFA834601F0D0FBD8
:1020B0001FFA80FA214650460E9A00F05DFD601C22
:1020C000C4B2AC42DEDB05B0BDE8F08F0000C84210
:1020D00010B50248FFF7EDF910BD0000980300208D
:1020E00070B505466C6A0020E085E0842046FFF765
:1020F000CAFA70BD0168C96821F490710268D160A4
:102100000168496921F0010102685161202180F8CC
:102110003A10704710B504462068C06820F04000AF
:102120002168C860202084F839002046FFF70BFDA5
:10213000002010BD70B5044694F83A0022284AD118
:10214000A068B0F5805F13D1A56A206940B9206806
:102150004068C0F308002880A06A801CA06219E0D3
:1021600020684068C0B22880A06A401CA06211E0CC
:10217000206938B920684068C1B2A26A501CA062C8
:10218000117007E02068406800F07F01A26A501CCF
:10219000A0621170E08D401E80B2E085C8B9206851
:1021A000C06820F020002168C8602068C06820F462
:1021B00080702168C8602068406920F001002168B3
:1021C0004861202084F83A002046FFF719FC0020DF
:1021D00070BD0020FCE70220FAE7000070B504465D
:1021E0002168096921F44051E268114322681161B4
:1021F0002269A1681143626941EA02052168C96840
:1022000041F20C62914329432268D16021684969F7
:1022100021F44071A269114322685161564A216834
:10222000914254D1FEF788FE00EBC00101EB001192
:1022300062689200B1FBF2F100EBC00202EB001207
:1022400063689B00B2FBF3F26423B2FBF3F202EB90
:10225000C20303EB0212A1EB8201322202EB011155
:102260006422B1FBF2F101F0F00100EBC00202EBDD
:10227000001263689B00B2FBF3F26423B2FBF3F23B
:1022800001EB021200EBC00101EB001163689B003F
:10229000B1FBF3F100EBC00303EB00136668B6007B
:1022A000B3FBF6F36426B3FBF6F303EBC30606EBCE
:1022B0000313A1EB8301322303EB01116423B1FB70
:1022C000F3F101F00F0111442268916053E0FEF731
:1022D00023FE00EBC00101EB001162689200B1FB2C
:1022E000F2F100EBC00202EB001263689B00B2FB4C
:1022F000F3F26423B2FBF3F202EBC20303EB02122C
:10230000A1EB8201322202EB01116422B1FBF2F156
:1023100001F0F00100EBC00202EB001263689B00C9
:10232000B2FBF3F26423B2FBF3F201EB021200EB17
:10233000C00101EB001163689B00B1FBF3F100EBFE
:10234000C00303EB00136668B600B3FBF6F3642624
:10235000B3FBF6F303EBC30606EB0313A1EB830118
:10236000322303EB01116423B1FBF3F101F00F0100
:1023700011442268916070BD00380140014691F817
:10238000390021282CD18868B0F5805F0FD10A6A06
:102390001088C0F308000B685860086918B9086A0B
:1023A000801C086209E0086A401C086205E00B6AAC
:1023B000581C086218780B685860C88C401E80B2A0
:1023C000C88458B90868C06820F080000B68D860DD
:1023D0000868C06840F040000B68D8600020704773
:1023E0000220FCE72DE9F04104460D4617469846C9
:1023F000069E21E0701CF8B12EB1FEF711FCA0EB97
:102400000800B04218D92068C06820F4D070216854
:10241000C8602068406920F00100216848612020E0
:1024200084F8390084F83A0000BF002084F83800AE
:1024300000BF0320BDE8F081206800682840A84262
:1024400001D1012000E00020B842D3D00020F1E704
:1024500010B500240C48FFF721F900BF01E0641C0F
:1024600000BF0948FFF710F92028F8D100BF002469
:1024700001E0641C00BF012204490348FFF788FA09
:102480000028F6D100BF10BD0C0100202A0000205A
:1024900000BFFEE702480068C0F30220704700005A
:1024A0000CED00E010B5002804DB0A07130E054A06
:1024B000135406E00A07140E034A00F00F031B1F13
:1024C000D45410BD00E400E018ED00E000BF7047F8
:1024D00010B504460420FEF7BBFF0148046010BDA0
:1024E0002000002030B50446002504E04FF47A7047
:1024F00000F004F86D1CA542F8D330BD70B503465A
:1025000000224FF0E02675690D4E366803FB06F495
:102510004FF0E026B16910E04FF0E026B069884244
:102520000BD0884202D20E1A324402E02E1A0E4418
:1025300032440146A24200D300E0EDE700BF70BD87
:102540002000002008B500206E2399221946009033
:102550001420FFF7D5FC00206E23142205210090E3
:102560001046FFF7CDFC00206E23992269210090D0
:102570009420FFF7C5FC00206E2399227321009060
:102580009420FFF7BDFC00200A23192205210090AA
:102590001420FFF7B5FC00200A230F22052100902C
:1025A0001420FFF7ADFC59220D210C2000F082FB16
:1025B000582270218C2000F07DFB002073231E2206
:1025C0006E2100901046FFF79BFC00207323282209
:1025D0006E2100901046FFF793FC002073233222F7
:1025E0006E2100901046FFF78BFC002073233C22E5
:1025F0006E2100901046FFF783FC002073234622D3
:102600006E2100901046FFF77BFC002073235022C0
:102610006E2100901046FFF773FC002073235A22AE
:102620006E2100901046FFF76BFC0020732364229C
:102630006E2100901046FFF763FC002073236E228A
:10264000114600901046FFF75BFC002073237822B0
:102650006E2100901046FFF753FC302272211220A9
:1026600000F028FB312272211C2000F023FB3222D3
:102670007221262000F01EFB33227121302000F051
:1026800019FB342272213A2000F014FB352272210A
:10269000442000F00FFB362272214E2000F00AFB8E
:1026A00037227221582000F005FB38227221622067
:1026B00000F000FB392272216D2000F0FBFA31227C
:1026C0007221762000F0F6FA302272217B2000F091
:1026D000F1FA00205A231422194600900A20FFF72D
:1026E0000FFC002046231422194600900A20FFF711
:1026F00007FC002032231422194600900A20FFF71D
:10270000FFFB00201E231422194600900A20FFF729
:10271000F7FB002064231422194600900A20FFF7DB
:10272000EFFB002050231422194600900A20FFF7E7
:10273000E7FB00203C231422194600900A20FFF7F3
:10274000DFFB002028231422194600900A20FFF7FF
:10275000D7FB30226E210A2000F0ACFA312255213D
:102760000A2000F0A7FA322241210A2000F0A2FA42
:1027700033222D210A2000F09DFA342219210A204B
:1027800000F098FA0B2200211E20FFF737FA0C22E6
:1027900000212D20FFF732FA0D2200213C20FFF707
:1027A0002DFA0E2200214B20FFF728FA08BD000069
:1027B0002DE9F04186B00746884616461D4600249E
:1027C0000020039004900590009001900290002E4C
:1027D00030DB00BF0BE00A2096FBF0F100FB11603C
:1027E000303003A908550A2096FBF0F6641CAC4271
:1027F000F1DB002406E0681E001B03A9085C0DF84D
:102800000400641CAC42F6DB00200DF805002FB973
:1028100022A241463846FFF797FA05E0791EC8B272
:102820001EA24146FFF790FA6A4641463846FFF736
:102830008BFA30E0764200240BE00A2096FBF0F1A0
:1028400000FB1160303003A908550A2096FBF0F612
:10285000641CAC42F1DB002406E0681E001B03A9E7
:10286000085C0DF80400641CAC42F6DB00200DF897
:1028700005002FB90AA241463846FFF765FA05E080
:10288000791EC8B206A24146FFF75EFA6A46414683
:102890003846FFF759FA06B0BDE8F0812000000085
:1028A0002D000000F0B503460C4600210026074D20
:1028B000002000BF05E05F5CAF4201DD5D5C0846C3
:1028C000491CA142F7DB1560F0BD000019FCFFFFB9
:1028D0002DE9F04FA7B0054609260027802107A85B
:1028E000FDF795FC0020069005900490039002905F
:1028F0008046814682468346019002241EE0464877
:10290000005D052804DC4448005D4349085514E097
:10291000A01E4149095C404AA01C105C08441146B5
:10292000095D0144601E105C0144601C105C084499
:10293000052190FBF1F011460855641C802CDEDB6C
:10294000022414E0601E3449085C095D88420ADCF8
:102950003149601C085C095D884204DC2E48005D3A
:1029600007A9085502E0002007A90855641C7D2C22
:10297000E8DB06AA802107A8FFF794FF287000244F
:1029800003E0002007A90855641C2878801CA04299
:10299000F7DA05AA802107A8FFF784FF68700024F2
:1029A00003E0002007A90855641C6878801CA04239
:1029B000F7DA04AA802107A8FFF774FFA8700024A3
:1029C00003E0002007A90855641CA878801CA042D9
:1029D000F7DA03AA802107A8FFF764FFE870002454
:1029E00003E0002007A90855641CE878801CA04279
:1029F000F7DA02AA802107A8FFF754FF2871002404
:102A000003E0002007A90855641C2879801CA04217
:102A1000F7DA27B0BDE8F08FD80900202DE9F041A2
:102A2000002409E02248005D802804DB2048005D86
:102A300040421F490855641CFF2CF3DD00241DE0B3
:102A4000802C0BDA1A48005D40431A4941F82400F3
:102A5000032C12DC002041F824000EE01448005D35
:102A60004043A4F18001144A42F82100C81CA0424E
:102A700003DB0020114641F82400641CFF2CDFDD3D
:102A8000002411E00B4951F824100B4A52F824207D
:102A9000881800F0BEFB074600F006FB054600F074
:102AA0008BFB03490855641C802CEBDBBDE8F081EF
:102AB000D8090020D8030020D80500201FB58020A9
:102AC00000900020019001200290032003906946AD
:102AD0000148FDF7FFFE1FBD001401407CB505460F
:102AE000002600200090019000242E4600BF06E042
:102AF00006F001000DF804007610601CC4B2082C2A
:102B0000F6DB9DF807001A4908609DF80600194990
:102B1000C1F898019DF805001549083908609DF82D
:102B20000400091F08600120114914390860FFF7EB
:102B3000D9FC00200E49143908609DF803000C49A7
:102B400008609DF80200091F08609DF80100091F38
:102B500008609DF80000091F086001200549C1F8C0
:102B60008801FFF7BFFC00200249C1F888017CBD45
:102B70009C8122420080224270B504460D461646D2
:102B80002B4622462946204600F034F8304600F015
:102B90006BF970BD00B585B000BF1248806940F088
:102BA0002000104988610846806900F020000090EC
:102BB00000BF00BFF7200190012002900220039087
:102BC0000320049001A90848FDF784FE002007496E
:102BD00008600749C1F8840104490831086005B05C
:102BE00000BD00000010024000140140808122421C
:102BF00000802242F0B504460D4616461F462A20A4
:102C000000F098F9002000F063F9611CC8B200F0F0
:102C10005FF9002000F05CF9711CC8B200F058F9AF
:102C20002B2000F087F9002000F052F9A91CC8B24F
:102C300000F04EF9002000F04BF9B91CC8B200F0CA
:102C400047F92C2000F076F9F0BD00002DE9F043A3
:102C500006460D461746002426E02B192919F21DB9
:102C60003046FFF7C7FFA7F12000114901EB001024
:102C700010F804904FF0000811E009F0010020B1B5
:102C80004FF4784000F0F0F803E04FF6FF7000F0EA
:102C9000EBF84FEA690908F1010000F0FF08B8F10C
:102CA000080FEADB601CC4B2102CD6DBBDE8F08351
:102CB000623D00082DE9F04306460D461746002404
:102CC00026E02B192919F21D3046FFF793FFA7F1D3
:102CD0002000114901EB001010F804904FF000089B
:102CE00011E009F0010020B14FF4784000F0BCF889
:102CF00003E04FF6FF7000F0B7F84FEA690908F1FA
:102D0000010000F0FF08B8F1080FEADB601CC4B254
:102D1000102CD6DBBDE8F08352430008FCB5074613
:102D20000D461446002C0ADA4FF6FF7000EA051132
:102D30002D223846FFF78AFF604204B207E04FF6C3
:102D4000FF7000EA051120223846FFF77FFF42F2AC
:102D5000107094FBF0F0C0B28DF800004FF47A7060
:102D600094FBF0F00A2190FBF1F201FB1200C0B2DB
:102D70008DF80100642094FBF0F090FBF1F201FB70
:102D80001200C0B28DF802000A2094FBF0F090FB14
:102D9000F1F201FB1200C0B28DF803000A2094FB8F
:102DA000F0F100FB1140C0B28DF8040000260FE0E6
:102DB0001DF806303033DAB22B07190E731C4FF0B2
:102DC000080C0CFB0373D8B2FFF740FF701CC6B2AF
:102DD000052EEDDBFCBDF8B506460F461446642013
:102DE00094FBF0F0C0B28DF800000A2094FBF0F0E4
:102DF0000A2190FBF1F201FB1200C0B28DF8010034
:102E00000A2094FBF0F100FB1140C0B28DF80200E3
:102E100000250FE01DF805303033DAB23B07190EFC
:102E20006B1C4FF0080C0CFB0363D8B2FFF70EFFCE
:102E3000681CC5B2032DEDDBF8BDF0B507460D46A5
:102E4000164600240CE0325D4FF6FF7303EA0511CD
:102E5000082303FB047398B2FFF7F8FE601C84B2EA
:102E6000305D0028EFD1F0BD10210022154B1A6013
:102E70000122154BC3F8A0210022124B203B1A60FF
:102E800017E000F4004222B101220E4B183B1A60F9
:102E900003E000220B4B183B1A600122094B203B38
:102EA0001A600022094BC3F89C214FF6FF7202EA18
:102EB00040000A1EA1F10103D9B2E2D10122014B67
:102EC0001A607047BC012242008021420000224269
:102ED00008210022144B1A600122144BC3F8A021D0
:102EE0000022114B203B1A6015E000F0800222B155
:102EF00001220D4B183B1A6003E000220A4B183BDD
:102F00001A600122084B203B1A600022084BC3F8CC
:102F10009C214206100E0A1EA1F10103D9B2E4D190
:102F20000122014B1A607047BC01224200802142FD
:102F30000000224208210022134B1A60134BC3F8F1
:102F4000A021114B203B1A6015E000F0800222B155
:102F500001220D4B183B1A6003E000220A4B183B7C
:102F60001A600122084B203B1A600022084BC3F86C
:102F70009C214206100E0A1EA1F10103D9B2E4D130
:102F80000122014B1A607047BC012242008021429D
:102F900000002242FDF756FE4FF4E010FEF755FF09
:102FA000FEF776FE4820FFF793FA4FF4165000F034
:102FB000A1F84FF4165000F0B9F8FEF711FFFEF734
:102FC000E3FDFEF7C3FD23A200210846FEF7BCFE89
:102FD000FFF7B8FA3CE022480078012812D02148D7
:102FE0000078012803D12048007803280AD01E4821
:102FF0000078042802D11D48007818B11C480078D8
:1030000001281CD100201B4908601B4908601B498E
:1030100008600120FFF766FA01201949C1F8AC01E8
:10302000C820FFF75FFA00201649086002200D490A
:10303000087000200E49087001200C4908700B48E8
:103040000078022804D1FDF753F9002007490870E1
:10305000C1E700006368656E7765696368616F004A
:103060003A0000203C0000203B0000202C00002003
:10307000010000203000002004000020AC8121422B
:1030800000802142340000201FB5802000900120E4
:103090000190022002900320039069460148FDF749
:1030A00019FC1FBD001401402DE9F04106460F46F2
:1030B00000F0C4F9041E0D4618BF0120284320F07B
:1030C0000040C0F17F6000F1E040C00F0ED0301C26
:1030D00018BF0120384320F00040C0F17F6000F1AC
:1030E000E040C00F04BF0120FDF7C1F8204629468B
:1030F000BDE8F08110B5044609480A490860084651
:10310000446000218160C160016181610C214161E5
:10311000FEF76AFB012204490248FEF739FC10BDA4
:10312000003801400C0100202A00002010B50446A0
:103130000748084908600846446000218160C16072
:10314000016181610C214161FEF74EFB10BD000061
:10315000004800404C0100204FEA41034FEA53531E
:10316000A3F58063D3F11E03C8BFD3F1210C0CDD9E
:103170004FF0004242EAC12242EA505232FA03FCC6
:103180008CEAE17CACEBE1707047102BC4BF0020EF
:10319000704703F5787CBCF1FF3F04D06FF000422C
:1031A00082EA2100704770B500F0F4F8499224805B
:1031B00000207047F2E700004FEA1153A3F5806347
:1031C000D3F11E03A8BFD3F1200C08DB4FF000425F
:1031D00042EAC12252EA505232FA03F070470942E1
:1031E0000BD4102BC4BF0020704703F5787CBCF1D2
:1031F000FF3F05D04FF0FF3070474FF000007047A1
:1032000070B500F0C7F800BF4992248000207047D5
:10321000F0E710F0004248BF4042B0FA80F310FAE5
:1032200003F10AD0C3F11D0303F580634FEA415057
:1032300002EB035202EBD12170474FF000007047C0
:10324000DFF848C170B51CEA111E1EBF1CEA131539
:103250009EEA0C0F95EA0C0F00F06F8081EA0304E0
:1032600023EA4C134EEAD47E21EA4C1141F480113A
:1032700043F48013AE44A1FB024CA0FB0365AEF106
:103280007F7E361955EB0C05A1FB034C4CF1000376
:10329000A0FB021C16EB0C06654153F1000309422A
:1032A00018BF46F0010613F4007F0BD14FEA03313B
:1032B0004FEA0530340341EA155140EA16506FF0E9
:1032C00003020AE04FEAC3214FEAC520F40241EAB3
:1032D000555140EA56506FF0020202EB2E4201EBCC
:1032E000025585EACE710AD05FEA440C18BF24F07B
:1032F000004450F1000041F1000120EAD47040F296
:10330000FE7C624500D270BDA84214BF4FF08044DD
:103310004FF04044002E08BF0024BEF1806FA8BFCC
:10332000A1F1C041BDE8704080F282804FF0000002
:1033300001F1C04101F0004170479EEA0C0F0CEA18
:10334000131518BF95EA0C0F06D04FF0000081EA64
:10335000030E0EF0004170BD00F01CF88900013E24
:1033600000F007B800F009B84FEA430C5FEA5C5C74
:1033700008D081EA030100F05BB84FEA410C5FEA34
:103380005C5CF6D14FF00000014970470000FF0778
:103390000000F87F0EF1020E2EF0030E5EF8046BB3
:1033A000364205D4012A43EB030515F5001F12D858
:1033B000012841EB010C1CF5001F0CD80ED14FEA7F
:1033C000D17C15F5001F0CEB4C0C0CF1020C08BF66
:1033D0004CEBD37C04E04FF0080C01E04FEAD37CC7
:1033E0000CEB4C0526FA05F606F00706B6F1040CC0
:1033F00006D20EEB860CBDE870404CF0010C604725
:10340000DFE80CF0090B02024FF000414FF0000022
:10341000A1F5002170BD19461046012851EB0104A9
:1034200018BFD4F5001484BF002001F0004170BD26
:103430000808A0F500114FEA310170472DE9F0416D
:1034400001F5801CBCF5001FC0F2C3804FEA115C7F
:1034500021EA0C510CF1FD0C41F480115FEA5C0C87
:103460000CF5C07C01D3400049413DA4890241EAEA
:10347000905187028E0E0A0CA45D04FB04F602FB39
:1034800006F6C6F14046A4FB0662F60D46EA422661
:1034900006FB06F4A4FB01235242C3F1404338BFAC
:1034A0005B1EA6FB02420024E6FB0324D20B42EA89
:1034B0004446A6FB0623A1FB02E2A3FB07E4A418F3
:1034C0004FF0000252F10002E3FB01426442C2F1FC
:1034D000404E38BFAEF1010EA6FB04234FF00002B0
:1034E000E6FB0E32A2FB03464FF00004B61954F17E
:1034F0000004E2FB0264A1FB06E6A4FB07E816EB6E
:1035000008064FF0000858F10008E4FB0168764215
:10351000C8F1405838BFA8F10108A2FB06E4A3FB9C
:1035200008E52D194FF0000454F10004E2FB0854A3
:10353000A1FB05E6A7FB04E818EB06084FF0000620
:1035400056F10006E1FB048618F1200556F100064D
:10355000A809A8F11B08B10908F03F08B8F10A0F43
:1035600040EA86601CD901EB0C51BDE8F08100BF38
:10357000FCF5EEE8E2DDD8D3CFCBC7C3C0BDB9B60A
:10358000B4B1AEACA9A7A5A3A19F9D9B9A9896950F
:103590009392908F8D8C8B89888786858483828196
:1035A000A0FB006800FB01F208EB4208B8EB87289B
:1035B00007D5341858EB0104D5D5401C51F1000152
:1035C000D1E7341A78EB0104CDD4401E71F100012B
:1035D000C9E75FEA4C0C5FEA9C5C0DD105D34FF064
:1035E000000001F00041BDE8F081BDE8F04170B598
:1035F000FFF7D0FE6DDBFFBEBDE8F0414FF00000ED
:10360000004970470000F87F90EA010F48BF81F041
:10361000004100F13C82421A3CBF801A89184FEAEF
:10362000D0524FF07F4C1CEA410FA2EBD15318BF90
:103630009CEA026F00F03B804FF0004C4CEA002007
:103640004CEA012121FA03FC10EB0C0C1ED202F112
:10365000FF325FEA1C2040EBC25038BF70471CF0BD
:103660007F0F4FEA400C18BFBCF17F4F38BF704747
:10367000C3F12003994008BF20F00100BCF17F4F47
:1036800038BF7047A0F1C04000F0F5B94FEA3C00E8
:10369000000A40EBC25028BF1CF0FF0F4FEA400C5D
:1036A000E6D018BFBCF17F4F38BF7047EAE79CEA0D
:1036B000026F05D010EA5C0F08BF00F000407047B1
:1036C00010B500F092F900BF64FBBE3E4FF47F0CD2
:1036D0001CEAD0121EBF1CEAD11392EA0C0F93EA27
:1036E0000C0F00F0858090EA010F48BF42F4807211
:1036F00040F4000C41F400002CF07F4120F07F40AA
:1037000000B58142A2EB03020FF2081CACEB504E55
:10371000C0F100009EF800E04FEA4E0E00FB0EFCE8
:1037200038BF49004FEA2C1C02F5FA020CFB0EF3DD
:103730004FEACE1E4FEA112C4FEAC1210EEB635E19
:1037400042EB22420EFB0CFC4FEA1C5300FB031120
:103750004FEA112C4FEA01310EFB0CFC4FEADC4C16
:1037600000FB0C11C14228BF09184CEB03335DF874
:1037700004EB10EB410143EBC250B2F57C0F38BFB4
:10378000704729D512F0F00F1CBF00F1C04000F0C7
:1037900000407047008182838485868788898B8C6E
:1037A0008D8E8F919293959697999A9C9D9FA0A2AA
:1037B000A3A5A7A8AAACAEB0B2B3B5B7B9BCBEC0FA
:1037C000C2C5C7C9CCCED1D4D7D9DCDFE2E6E9EC9B
:1037D000F0F3F7FAFE0000004FEA400C0CF1807C99
:1037E000BCF17E4F28BF7047B0F1C04000F043B934
:1037F00090EA010F0CEAD11348BF42F4807262458F
:1038000038BF634507D213F47F0F16D080EA01005A
:1038100000F00040704710B500F0E7F8097EFC3E6C
:1038200000F005B880EA010000F00040704780EA2F
:10383000010000F0004000F01EB912F47F0F04BF39
:103840000248704780EA010000F015B90000C07F0F
:10385000C10DD1F19E0206DB4FEA002343F0004385
:1038600023FA02F07047004207D54FEA4001B1F158
:10387000FE4F02D24FF00000704710B500F0B5F8CF
:1038800049922480002070476FEA200070470000B2
:1038900010F0004148BF4042B0FA80F310FA03F242
:1038A000C3F19D030BD051EAC35101EB1220530623
:1038B00038BF704700F1010008BF20F001007047D9
:1038C000B0FA80F310FA03F2C3F19D030AD0D905D0
:1038D00001EB1220530638BF704700F1010008BF0A
:1038E00020F00100704700004FF47F0C1CEAD0125A
:1038F0001EBF1CEAD11392EA0C0F93EA0C0F00F0E2
:10390000478090EA010F48BF42F480724FF0004CAC
:103910004CEA00204CEA012102EB0302A0FB011358
:10392000A2F50002002918BF43F001035B0028BF85
:103930004FEA330342EB22425FEA132C4CEBC250B6
:103940002EBFBCEB436FB2F57C0F70474FEA036CA0
:10395000BCF1004F08BF20F00100B2F57C0F38BF6A
:1039600070470BD582F0FF0212F5803FC8BF704749
:1039700000F1C040D8BF00F00040704700F5000CD7
:103980005FEA4C0C48BF7047B0F1C04000F073B81C
:1039900090EA010F0CEAD11348BF42F480726245ED
:1039A00038BF634504D280EA010000F00040704750
:1039B00010B500F01AF800BF8900013E00F007B80A
:1039C00000F009B85FEA410C5FEA1C6C08D080EA9D
:1039D000010000F050B85FEA400C5FEA1C6CF6D1C1
:1039E0004FF00040A0F5800070470EF1020E2EF05F
:1039F000030E5EF8044B244204D44FEA4102B2F1B4
:103A00007F4F11D84FEA4003B3F17F4F0CD80ED14E
:103A10004FEAD07CB2F17F4F0CEB4C0C0CF1020C56
:103A200008BF4CEBD17C04E04FF0080C01E04FEAFA
:103A3000D17C0CEB4C0324FA03F404F00704B4F13A
:103A4000040C06D20EEB840CBDE810404CF0010CC7
:103A50006047DFE80CF0070802024FF00040A0F5D5
:103A6000800010BD0846420018BFD2F1807288BFA6
:103A700000F0004010BDFF2141EAD050C005704762
:103A800090EA010F48BF81F000413FF5C4AD421AF2
:103A900004D882F00042A0EB020011444FEAD05259
:103AA0004FF07F4C1CEA410FA2EBD15318BF9CEAA8
:103AB000026F4AD04FF0004C4CEA00204CEA012142
:103AC00021FA03FCB0EB0C0C0FD412F0FE0F36D031
:103AD0005FEA4C001DD5001240EBC25038BF704762
:103AE0001CF03F0F18BF70470BE0A2F101025FEA24
:103AF0001C2040EBC25038BF70471CF07F0F18BF2E
:103B00007047C3F12003994014BF401E20F001000C
:103B1000704780084FEA122308BF7047B0FA80FC54
:103B2000A2EB0C02CCF1280C60FA0CF093EA122FF5
:103B300004BF00EBC25070474FEAC3707047130ACE
:103B40005FEADC1008BF7047F6E79CEA026F04D01A
:103B500010EA5C0F08BF0020704710B5FFF745FF63
:103B600040DFF63E81F0004070470000000000009A
:103B7000000001020304060708090000000001021A
:103B8000030420002040FE4320202010FC890080F8
:103B9000FC4104210411FC8900808840D0233E10A0
:103BA000040C2004200820082000FF7F20012011A1
:103BB0002011200910051003084188414441227E4C
:103BC00001008420082108111F00D07F0804080488
:103BD0009C3F2A040904C87F080408040804080458
:103BE0000804100010FF14087404147F1441FE49E7
:103BF000004910495449544954454214202218415F
:103C0000868040108208E43F040520254015F77F98
:103C10000400C41F44104410C41F54104C10C41F8F
:103C200040100002200220041004080804100220A2
:103C3000F94720042004200410041004080484021E
:103C400002010810083888078800BF0088008C7FB0
:103C50009C08AA088A08890888088808480848082B
:103C60002808100110125012481048108C088C08B7
:103C70008A0809050805080208020805880848108E
:103C80002860000000002030200C1000E03E981258
:103C9000980C5860105F10591049107910460000B8
:103CA0000000000000010001000EF003D004900BA2
:103CB000F00290011007880288020403820C7078D9
:103CC00000000000001810093005001E00155815EE
:103CD0008E0D087FC80888179810080B8010000FF9
:103CE000000000000000800180088808B004A002E5
:103CF000800CF81B0008000FE0080008800F70001F
:103D000000000000000420044002007EFE090008BC
:103D1000780A480A780A480A780A4810601C40085D
:103D20000000000000002000203FE004281AF825D1
:103D30002429A42564252025201C10320C21800074
:103D40000000000080008007E000400AD801B008B1
:103D50004813E8000071FE0F8000800080008000A2
:103D60000000000000000000000000000000000053
:103D700000000000000808080808080800000808FB
:103D80000000004824241200000000000000000091
:103D900000000000004848487E2424247E24242477
:103DA00000000000103C5252121C30505052523C45
:103DB0001010000000222515150D2A5854545222C7
:103DC00000000000000C1212120A76252919916ECB
:103DD00000000006040402000000000000000000D3
:103DE00000000040201010080808080808101020E3
:103DF00040000002040808101010101010080804F9
:103E000002000000000008086B1C1C6B0808000082
:103E100000000000000000101010FE101010000044
:103E20000000000000000000000000000000060488
:103E3000040200000000000000007E0000000000FE
:103E40000000000000000000000000000000060666
:103E50000000000040202020101008080804040280
:103E6000020000000018244242424242424224180A
:103E70000000000000101C10101010101010107C1A
:103E800000000000003C4242424020100804427EF4
:103E900000000000003C4242402018204042423CCA
:103EA000000000000020303028242422FE2020F8CA
:103EB00000000000007E0202021E22404042221C3E
:103EC0000000000000182402023A464242424438F0
:103ED00000000000007E422020101008080808089A
:103EE00000000000003C4242422418244242423C6E
:103EF00000000000001C22424242625C4040241844
:103F00000000000000000000181800000000181851
:103F10000000000000000000000800000000000891
:103F20000808000000402010080402040810204087
:103F300000000000000000007E00007E0000000085
:103F400000000000000204081020402010080402B5
:103F500000000000003C42424620101010001818DB
:103F600000000000001C225A55555555553A423C58
:103F700000000000000808181414243C224242E704
:103F800000000000001F2222221E22424242221F65
:103F900000000000007C4242010101010142221C9C
:103FA00000000000001F2242424242424242221FC1
:103FB00000000000003F4212121E12120242423F55
:103FC00000000000003F4212121E121202020207FD
:103FD00000000000003C2222010101712122221C6C
:103FE0000000000000E7424242427E42424242E775
:103FF00000000000003E0808080808080808083EFD
:1040000000000000007C1010101010101010101094
:10401000110F0000007722120A0E0A1212222277D4
:104020000000000000070202020202020202427FB8
:1040300000000000007736363636362A2A2A2A6BE8
:104040000000000000E346464A4A5252526262476C
:1040500000000000001C2241414141414141221C1D
:1040600000000000003F424242423E0202020207BC
:1040700000000000001C224141414141414D321CE1
:1040800060000000003F4242423E1212222242C71C
:1040900000000000007C4242020418204042423EE0
:1040A00000000000007F4908080808080808081CEC
:1040B0000000000000E74242424242424242423C8B
:1040C0000000000000E742422224241414180808CB
:1040D00000000000006B2A2A2A2A2A36141414141D
:1040E0000000000000E7422424181818242442E7A6
:1040F0000000000000772222141408080808081C99
:1041000000000000007E2120101008040442423FFD
:1041100000000078080808080808080808080808C7
:104120007800000002040404080808101020202071
:104130004040001E10101010101010101010101021
:104140001E00001824000000000000000000000015
:10415000000000000000000000007E0000000000E1
:104160000000000608000000000000000000000041
:104170000000000000000000001C22302C22326CE5
:104180000000000000000302021A26424242261AE2
:104190000000000000000000003844020202443821
:1041A0000000000000006040407C4242424262DC6D
:1041B0000000000000000000003C42427E02423C41
:1041C0000000000000003048083E08080808083ECB
:1041D0000000000000000000007C22221C023C4283
:1041E000423C000000000302023A4642424242E7DB
:1041F00000000000000C0C00000E08080808083E33
:104200000000000000303000003820202020202056
:10421000221E0000000003020272120A0E12227710
:104220000000000000080E08080808080808083EFA
:104230000000000000000000007F9292929292B76E
:104240000000000000000000003B4642424242E7FE
:104250000000000000000000003C42424242423C9C
:104260000000000000000000001B26424242261A07
:1042700002070000000000000058644242426458F7
:1042800040E000000000000000774C040404041F1C
:104290000000000000000000007C42023C40423E62
:1042A0000000000000000008083E08080808483028
:1042B000000000000000000000634242424262DC55
:1042C00000000000000000000077222214140808FB
:1042D000000000000000000000DB91525A2A242454
:1042E0000000000000000000006E2418181824765A
:1042F000000000000000000000E742242418180815
:104300000806000000000000007E22100808447E1D
:10431000000000C02020202020201020202020206D
:10432000C0001010101010101010101010101010ED
:104330001010000304040404040408040404040426
:104340000300045A200000000000000000000000EC
:10435000000000000000000000000000000000005D
:1043600000000000001010101010101000001010BD
:10437000000000482424120000000000000000009B
:1043800000000000004848487E2424247E24242481
:1043900000000000103C5252121C30505052523C4F
:1043A0001010000000222515150D2A5854545222D1
:1043B00000000000000C1212120A76252919916ED5
:1043C00000000006040402000000000000000000DD
:1043D00000000040201010080808080808101020ED
:1043E0004000000204080810101010101008080403
:1043F00002000000000008086B1C1C6B080800008D
:1044000000000000000000101010FE10101000004E
:104410000000000000000000000000000000060492
:10442000040200000000000000007E000000000008
:104430000000000000000000000000000000060670
:10444000000000004020202010100808080404028A
:104450000200000006090909090906000000000021
:10446000000000000406040404040E000000000024
:10447000000000000E0A080404020E000000000004
:10448000000000000E0A0804080A0E0000000000E8
:1044900000000000080C0A091F081C0000000000B2
:1044A000000000000E020E08080A060000000000CE
:1044B000000000000E0107090909060000000000C5
:1044C000000000000E0808040404040000000000BE
:1044D00000000000060909060909060000000000A6
:1044E00000000000060909090F0C07000000000089
:1044F000000000000000000018180000000018185C
:10450000000000000000000000080000000000089B
:104510000808000000402010080402040810204091
:1045200000000000000000007E00007E000000008F
:1045300000000000000204081020402010080402BF
:1045400000000000003C42424620101010001818E5
:1045500000000000001C225A55555555553A423C62
:1045600000000000000808181414243C224242E70E
:1045700000000000001F2222221E22424242221F6F
:1045800000000000007C4242010101010142221CA6
:1045900000000000001F2242424242424242221FCB
:1045A00000000000003F4212121E12120242423F5F
:1045B00000000000003F4212121E12120202020707
:1045C00000000000003C2222010101712122221C76
:1045D0000000000000E7424242427E42424242E77F
:1045E00000000000003E0808080808080808083E07
:1045F00000000000007C101010101010101010109F
:10460000110F0000007722120A0E0A1212222277DE
:104610000000000000070202020202020202427FC2
:1046200000000000007736363636362A2A2A2A6BF2
:104630000000000000E346464A4A52525262624776
:1046400000000000001C2241414141414141221C27
:1046500000000000003F424242423E0202020207C6
:1046600000000000001C224141414141414D321CEB
:1046700060000000003F4242423E1212222242C726
:1046800000000000007C4242020418204042423EEA
:1046900000000000007F4908080808080808081CF6
:1046A0000000000000E74242424242424242423C95
:1046B0000000000000E742422224241414180808D5
:1046C00000000000006B2A2A2A2A2A361414141427
:1046D000000000001B0A0A04040A0A1B0000000074
:1046E000000000001B0A0A0A0404040E0000000077
:1046F00000000000007E2120101008040442423F08
:1047000000000078080808080808080808080808D1
:10471000780000000204040408080810102020207B
:104720004040001E1010101010101010101010102B
:104730001E0000182400000000000000000000001F
:10474000000000000000000000007E0000000000EB
:10475000000000060800000000000000000000004B
:104760000000000000000000001C22302C22326CEF
:104770000000000000000302021A26424242261AEC
:10478000000000000000000000384402020244382B
:104790000000000000006040407C4242424262DC77
:1047A0000000000000000000003C42427E02423C4B
:1047B0000000000000003048083E08080808083ED5
:1047C0000000000000000000007C22221C023C428D
:1047D000423C000000000302023A4642424242E7E5
:1047E00000000000000C0C00000E08080808083E3D
:1047F0000000000000303000003820202020202061
:10480000221E0000000003020272120A0E1222771A
:104810000000000000080E08080808080808083E04
:104820000000000000000000007F9292929292B778
:104830000000000000000000003B4642424242E708
:104840000000000000000000003C42424242423CA6
:104850000000000000000000001B26424242261A11
:104860000207000000000000005864424242645801
:1048700040E000000000000000774C040404041F26
:104880000000000000000000007C42023C40423E6C
:104890000000000000000008083E08080808483032
:1048A000000000000000000000634242424262DC5F
:1048B0000000000000000000007722221414080805
:1048C000000000000000000000DB91525A2A24245E
:1048D0000000000000000000006E24181818247664
:1048E000000000000000000000E74224241818081F
:1048F0000806000000000000007E22100808447E28
:10490000000000C020202020202010202020202077
:10491000C0001010101010101010101010101010F7
:104920001010000304040404040408040404040430
:104930000300045A200000000000000000000000F6
:1049400000000000000000000000002F0000000038
:104950000700070000147F147F1400242A7F2A1206
:1049600000626408132300364955225000000503F5
:10497000000000001C224100000041221C00001425
:10498000083E08140008083E0808000000A0600067
:1049900000080808080800006060000000201008F7
:1049A0000402003E5149453E0000427F4000004263
:1049B00061514946002141454B31001814127F10C6
:1049C000002745454539003C4A49493000017109F5
:1049D000050300364949493600064949291E0000A9
:1049E0003636000000005636000000081422410050
:1049F0000014141414140000412214080002015180
:104A0000090600324959513E007C1211127C007F88
:104A100049494936003E41414122007F4141221C23
:104A2000007F49494941007F09090901003E414988
:104A3000497A007F0808087F0000417F410000207C
:104A400040413F01007F08142241007F4040404028
:104A5000007F020C027F007F0408107F003E41416E
:104A6000413E007F09090906003E4151215E007F59
:104A7000091929460046494949310001017F0101D0
:104A8000003F4040403F001F2040201F003F403873
:104A9000403F0063140814630007087008070061B2
:104AA0005149454300007F41410000552A552A5590
:104AB000000041417F000004020102040040404028
:104AC0004040000001020400002054545478007F4C
:104AD0004844443800384444442000384444487F23
:104AE00000385454541800087E0901020018A4A488
:104AF000A47C007F080404780000447D400000404E
:104B000080847D00007F102844000000417F400029
:104B1000007C04180478007C0804047800384444BD
:104B2000443800FC242424180018242418FC007C99
:104B30000804040800485454542000043F44402012
:104B4000003C4040207C001C2040201C003C4030A9
:104B5000403C004428102844001CA0A0A07C004435
:104B600064544C4414141414141400000000000085
:104B700000000000000000000000000000F800003D
:104B80000000000000333000000000100C06100C84
:104B90000600000000000000000040C07840C0781F
:104BA0004000043F04043F040400007088FC083007
:104BB0000000001820FF211E0000F008F000E0189F
:104BC000000000211C031E211E0000F00888700058
:104BD00000001E2123241927211010160E000000AA
:104BE00000000000000000000000000000E01804C9
:104BF0000200000000071820400000020418E00036
:104C000000000040201807000000404080F0804075
:104C100040000202010F01020200000000F000004B
:104C200000000101011F010101000000000000005F
:104C3000000080B0700000000000000000000000D4
:104C4000000000010101010101010000000000005D
:104C50000000003030000000000000000000806014
:104C60001804006018060100000000E01008081099
:104C7000E000000F102020100F00001010F80000BE
:104C800000000020203F2020000000700808088855
:104C90007000003028242221300000300888884825
:104CA00030000018202020110E000000C02010F855
:104CB000000000070424243F240000F80888880826
:104CC00008000019212020110E0000E0108888182B
:104CD0000000000F112020110E0000380808C8380D
:104CE00008000000003F00000000007088080888ED
:104CF0007000001C222121221C0000E01008081076
:104D0000E0000000312222110F00000000C0C000AE
:104D100000000000003030000000000000800000B3
:104D200000000000806000000000000080402010B3
:104D300008000001020408102000404040404040AC
:104D4000400004040404040404000008102040800F
:104D50000000002010080402010000704808080844
:104D6000F0000000003036010000C030C828E81014
:104D7000E0000718272423140B000000C038E000CF
:104D80000000203C23020227382008F88888887019
:104D90000000203F202020110E00C0300808080825
:104DA0003800071820202010080008F8080808100C
:104DB000E000203F202020100F0008F88888E80835
:104DC0001000203F20202320180008F88888E808D9
:104DD0001000203F200003000000C0300808083801
:104DE000000007182020221E020008F80800000812
:104DF000F808203F210101213F20000808F8080899
:104E000000000020203F2020000000000808F808D3
:104E10000800C08080807F00000008F888C0281843
:104E20000800203F20012638200008F80800000074
:104E30000000203F20202020300008F8F800F8F87B
:104E40000800203F003F003F200008F830C0000865
:104E5000F808203F200007183F00E010080808105D
:104E6000E0000F10202020100F0008F808080808A4
:104E7000F000203F210101010000E01008080810A7
:104E8000E0000F18242438504F0008F888888888DC
:104E90007000203F2000030C3020007088080808B4
:104EA00038000038202121221C00180808F80808C2
:104EB00018000000203F2000000008F8080000084B
:104EC000F808001F202020201F000878880000C854
:104ED0003808000007380E010000F80800F8000844
:104EE000F800033C0700073C03000818688080684E
:104EF000180820302C03032C30200838C800C8388C
:104F000008000000203F2000000010080808C838F2
:104F100008002038262120201800000000FE020290
:104F200002000000007F40404000000C30C0000044
:104F30000000000000010638C00000020202FE006E
:104F40000000004040407F00000000000402020218
:104F5000040000000000000000000000000000004D
:104F60000000808080808080808000020204000039
:104F70000000000000000000000000008080808031
:104F800000000019242222223F2008F8008080001F
:104F90000000003F112020110E00000000808080E2
:104FA0000000000E112020201100000000808088E9
:104FB000F800000E112020103F200000808080802B
:104FC0000000001F222222221300008080F0888827
:104FD00088180020203F2020000000008080808072
:104FE0008000006B94949493600008F800808080A7
:104FF0000000203F210000203F2000809898000002
:1050000000000020203F2020000000000080989831
:10501000000000C08080807F000008F800008080D1
:105020008000203F24022D302000000808F80000F6
:1050300000000020203F20200000808080808080B1
:105040008000203F20003F20003F80800080808043
:105050000000203F210000203F2000008080808051
:105060000000001F202020201F0080800080800082
:10507000000080FFA12020110E0000000080808031
:105080008000000E112020A0FF80808080008080A2
:10509000800020203F2120000100000080808080CF
:1050A00080000033242424241900008080E08080C4
:1050B00000000000001F2020000080800000008011
:1050C0008000001F202020103F2080808000008072
:1050D000808000010E300806010080800080008082
:1050E00080800F300C030C300F0000808000808027
:1050F00080000020312E0E31200080808000008052
:10510000808080818E701806010000808080808001
:1051100080000021302C2221300000000000807C23
:10512000020200000000003F404000000000FF00BD
:10513000000000000000FF0000000002027C800070
:1051400000000040403F0000000000060101020294
:105150000404000000000000000000007C51000872
:1051600000000020440000006C010008C05100084D
:1051700044000020F410000088010008070100002E
:105180000000000000000000000000000024F40007
:1051900000000000100000000100000000000000FE
:1051A00000000000000000000000000000000000FF
:1051B00000000000000000040000020002010014D2
:0400000508000131BD
:00000001FF
